:020000040000FA
:1000000068080010C5010000CD010000CF0100000C
:10001000D1010000D3010000D50100000000000064
:10002000000000000000000000000000D7010000F8
:10003000D901000000000000DB010000DD0100002C
:10004000DF010000DF010000DF010000DF01000030
:10005000DF010000DF010000DF010000DF01000020
:10006000DF010000DF010000DF010000DF01000010
:10007000DF010000DF010000DF010000DF01000000
:10008000DF010000DF010000DF010000DF010000F0
:10009000DF010000DF010000DF010000DF010000E0
:1000A000DF010000DF010000D9020000DF010000D5
:1000B000DF010000DF010000DF010000DF010000C0
:1000C000DF010000DF010000DF01000000F002F8A6
:1000D00000F068F80AA090E8000C82448344AAF17A
:1000E0000107DA4501D100F05DF8AFF2090EBAE878
:1000F0000F0013F0010F18BFFB1A43F0010318475C
:1001000070050000C00500000A444FF0000C10F814
:10011000013B13F0070408BF10F8014B1D1108BF85
:1001200010F8015B641E05D010F8016B641E01F825
:10013000016BF9D113F0080F1EBF10F8014BAD1C75
:100140000C1B09D16D1E58BF01F801CBFAD505E093
:1001500014F8016B01F8016B6D1EF9D59142D6D3ED
:1001600070470000103A24BF78C878C1FAD8520707
:1001700024BF30C830C144BF04680C607047000021
:100180000023002400250026103A28BF78C1FBD8A0
:10019000520728BF30C148BF0B6070471FB51FBD55
:1001A00010B510BD00F0ACF81146FFF7F7FF00F0F6
:1001B00046FA00F083F803B4FFF7F2FF03BC00F047
:1001C0001FFA00000948804709480047FEE7FEE79C
:1001D000FEE7FEE7FEE7FEE7FEE7FEE7FEE7FEE7F7
:1001E00004480549054A064B7047000065050000B4
:1001F000CD000000680000106808001068040010BE
:1002000068040010704710B5002000F032F8FFF7C6
:10021000C7FFBDE81040012000F0F2B94FF0000226
:1002200000B5134694469646203922BFA0E80C50EC
:10023000A0E80C50B1F12001BFF4F7AF090728BFC7
:10024000A0E80C5048BF0CC05DF804EB890028BF43
:1002500040F8042B08BF704748BF20F8022B11F06C
:10026000804F18BF00F8012B7047704770477047E8
:10027000704710B500F00AF8BDE81040AFF30080F9
:10028000002801D000F0BCB97047000010B5002173
:1002900002A000F05AF8012010BD00005349474168
:1002A0004252543A2041626E6F726D616C207465E7
:1002B000726D696E6174696F6E00000010B504465E
:1002C000AFF300802046BDE81040FFF774BF000088
:1002D000004870470000001044F20000C5F2000022
:1002E0000168CA0706D040F260020123C1F2000291
:1002F000136040BF0161816070474100FFFFFFFF55
:100300007546FFF7E5FFAE4605006946534620F007
:100310000700854618B020B5FFF762FFBDE8204012
:100320004FF000064FF000074FF000084FF0000BB1
:10033000AC46ACE8C009ACE8C009ACE8C009ACE820
:10034000C00921F007018D46704770B505460C467F
:100350000A2000E06D1C00F05DF935B12878002816
:10036000F8D102E0641C00F055F914B1207800289F
:10037000F8D1BDE870400A2000F04CB94CF6B0004E
:10038000C2F2070070474EF20060C2F207007047E9
:10039000BCB5FFF7F8FF00F029F8FFF7EFFF00F01A
:1003A0007FF840F2000140F24C620020C2F20801E6
:1003B000C0F20002B0F5807F15D00B5C8DF80730DD
:1003C0009DF807307BB121280BD89DF807409DF898
:1003D0000750135C640865F3C71484F0C3049C429F
:1003E00002D10130E6E7BCBDFFF70DFF10B54FF4B9
:1003F00096710446FFF712FF4DF60030C2F2070077
:10040000C4F80401C4F80C010020B0F5807F07D0C7
:10041000C1076FF05A0108BF5A2121540130F4E797
:100420004BF6D1214BF6D0224BF6D220C4E946211F
:1004300040F2FA21C4F820014AF6DE50C0F2000171
:10044000CDF6C0600978C4F8E0000020A4F8FC00F4
:1004500084F8F71040F20001C2F208010A0E84F895
:10046000FF200A0C84F8FE20D4F80C21130E84F827
:10047000F82084F8FB30130C120A84F8F92040F2BB
:100480004C6284F8FA30C0F20002B0F5807F08BFF9
:1004900010BD212894BF135C00230B540130F4E7F6
:1004A000B0B544F21001C5F200010A6A42F001023F
:1004B0000A62D1F8002142F48022C1F80021D1F86B
:1004C0000021920301D500BFF9E70023C1F80031F4
:1004D00090E83400C068C1F8F020C1F8F440C1F8D9
:1004E000F850C1F8FC004CF218004FF480024FF0B5
:1004F0008064C2F209000260012241F8082C0A60FF
:1005000040F26002C1F2000213604EF20013CEF21C
:1005100000031C6048F20104D1F800312343C1F804
:100520000031116809B920BFFBE74FF48001416039
:10053000B0BD4CF2C400C4F20F00016841F000519C
:1005400001604CF20400C4F20200016821F4405141
:1005500001604CF20000C2F20900016841F4800120
:10056000016070474CF200002021C4F20F00C0F877
:10057000A011D0F8A011890603D5D0F8A011490622
:10058000FBD5032163225523C0F804110021C0F2DA
:100590000502C0F8A811C0F8AC110121C0F80C1177
:1005A000C0F88420AA22C0F88C20C0F88C30C0F893
:1005B0008010C0F88C20C0F88C30D0F88810490129
:1005C000FBD50321C0F88010AA21C0F88C1055215A
:1005D000C0F88C10D0F8881001F04071B1F1407F64
:1005E000F8D100214FF40212C0F80811C0F8C4205D
:1005F000C0F8C8110422016862F30F31016070472E
:100600004EF6F050CEF200000168C90700D000BEDF
:1006100020BFF9E740F60061CEF20001D1F880205A
:10062000D2070BD00968C90708D04FF060410A68AB
:100630000AB900BFFBE74FF060410870704780B512
:10064000FFF777FFFFF7A4FE002080BDE771F5F507
:1006500074D3F2FA73F871D3F47178D3EBE5DBDF7E
:10066000DBD3E16563D37874FAF5F153C6C30000B8
:100670000008000000C00720701C0000640100009A
:100680007024000070DC07209007000008010000C3
:10069000C006000000000010680800008001000093
:1006A0007027000000E407202C03000080010000F8
:1006B00070270000000008200001000080010000F9
:1006C000000000000000000000000000000000002A
:1006D000000000000000000000000000000000001A
:1006E000000000000000000000000000000000000A
:1006F00000000000000000000000000000000000FA
:1007000000000000000000000000000000000000E9
:1007100000000000000000000000000000000000D9
:1007200000000000000000000000000000000000C9
:1007300000000000000000000000000000000000B9
:1007400000000000000000000000000000000000A9
:100750000000000000000000000000000000000099
:100760000000000000000000000000000000000089
:100770000000000000000000000000000000000079
:100780000000000000000000000000000000000069
:100790000000000000000000000000000000000059
:1007A0000000000000000000000000000000000049
:1007B0000000000000000000000000000000000039
:1007C0000000000000000000000000000000000029
:1007D0000000000000000000000000000000000019
:1007E0000000000000000000000000000000000009
:1007F00000000000000000000000000000000000F9
:1008000017E7072070DC072070DC07200100000CD0
:1008100000D4072018E7072020C007200C0000089C
:1008200014E7072090DC072090DC07200100000C73
:1008300015E70720A0DC0720A0DC07200100000C42
:1008400016E70720B0DC0720B0DC07200100000C11
:1008500004E70720C0DC0720C0DC07200400000CF0
:1008600004D0072000E50720B0C007200001000CDD
:1008700005E70720D0DC0720D0DC07200100000CB2
:1008800024E70720E0DC0720E0DC07200100000C63
:1008900004D4072000E50720A0C007200001000CB9
:1008A00004E70720F0DC0720F0DC07200100000C43
:1008B00004E7072000DD072000DD07200100000C11
:1008C00006E707200AE7072000C007200100240CE4
:1008D0001CE7072010DD072010DD07200100000CB9
:1008E00014E7072020DD072020DD07200100000C91
:1008F0001CE7072030DD072030DD07200100000C59
:1009000018E7072040DD072040DD07200100000C2C
:100910001CE7072050DD072050DD07200100000CF8
:1009200014E7072060DD072060DD07200100000CD0
:100930001CE7072070DD072070DD07200100000C98
:1009400018E7072080DD072080DD07200100000C6C
:100950001CE7072070DE072070DE07200100000C76
:100960001CE7072090DD072090DD07200100000C28
:1009700018E70720A0DD0720A0DD07200100000CFC
:1009800001E40720B0DD0720B0DD07200100000CE6
:1009900001E40720C0DD0720C0DD07200100000CB6
:1009A00000E40720D0DD0720D0DD07200100000C87
:1009B00001E40720E0DD0720E0DD07200100000C56
:1009C00001E40720F0DD0720F0DD07200100000C26
:1009D00018E7072000DE072000DE07200100000CDA
:1009E00001E4072010DE072010DE07200100000CC4
:1009F00001E4072020DE072020DE07200100000C94
:100A000000E4072030DE072030DE07200100000C64
:100A100002E4072040DE072040DE07200100000C32
:100A200001E4072050DE072050DE07200100000C03
:100A300002E4072060DE072060DE07200100000CD2
:100A40001CE7072060DF072060DF07200100000CA3
:100A50001CE7072080DE072080DE07200100000C55
:100A600018E7072090DE072090DE07200100000C29
:100A700001E40720A0DE0720A0DE07200100000C13
:100A800001E40720B0DE0720B0DE07200100000CE3
:100A900000E40720C0DE0720C0DE07200100000CB4
:100AA00001E40720D0DE0720D0DE07200100000C83
:100AB00001E40720E0DE0720E0DE07200100000C53
:100AC00018E70720F0DE0720F0DE07200100000C09
:100AD00001E4072000DF072000DF07200100000CF1
:100AE00001E4072010DF072010DF07200100000CC1
:100AF00000E4072020DF072020DF07200100000C92
:100B000002E4072030DF072030DF07200100000C5F
:100B100001E4072040DF072040DF07200100000C30
:100B200002E4072050DF072050DF07200100000CFF
:100B30001CE7072070DF072070DF07200100000C92
:100B40001CE7072060E0072060E007200100000CA0
:100B50001CE7072080DF072080DF07200100000C52
:100B600018E7072090DF072090DF07200100000C26
:100B700001E40720A0DF0720A0DF07200100000C10
:100B800001E40720B0DF0720B0DF07200100000CE0
:100B900000E40720C0DF0720C0DF07200100000CB1
:100BA00001E40720D0DF0720D0DF07200100000C80
:100BB00001E40720E0DF0720E0DF07200100000C50
:100BC00018E70720F0DF0720F0DF07200100000C06
:100BD00001E4072000E0072000E007200100000CEE
:100BE00001E4072010E0072010E007200100000CBE
:100BF00000E4072020E0072020E007200100000C8F
:100C000002E4072030E0072030E007200100000C5C
:100C100001E4072040E0072040E007200100000C2D
:100C200002E4072050E0072050E007200100000CFC
:100C300004D4072000E5072040C407200001000875
:100C400015E7072074E0072070E007200100000C82
:100C50001CE7072015E7072030C407200100000C1F
:100C600014E7072000E5072070C4072000010008F2
:100C700015E7072084E0072080E007200100000C32
:100C800020E7072090E0072090E007200100000CFB
:100C900004E70720E0E00720E0E007200100000C67
:100CA00005E70720A0E00720A0E007200100000CD6
:100CB00024E70720B0E00720B0E007200100000C87
:100CC00004E70720C0E00720C0E007200100000C77
:100CD00025E70720D0E00720D0E007200100000C26
:100CE00025E70720F0E00720F0E007200100000CD6
:100CF00006E707200AE70720F0C807200200000CDB
:100D00001CE7072015E7072060C407200100000C3E
:100D100020E7072004E1072020C507200100480C38
:100D20001CE7072000E1072030C507200100480C20
:100D300018E707200CE1072000E107200100480C1C
:100D40001CE7072010E1072010E107200100000C3C
:100D500008E7072020E7072060C507200200000CF5
:100D600016E7072024E1072020E107200100000CFE
:100D70000CE7072008E7072080C507200400000CC7
:100D80000CE7072070E1072070E107200100000C4C
:100D90000DE7072030E1072030E107200100000CBB
:100DA00024E7072040E1072040E107200100000C74
:100DB0000CE7072050E1072050E107200100000C5C
:100DC00014E7072060E1072060E107200100000C24
:100DD00014E7072080E1072080E107200100000CD4
:100DE00009E70720D0E10720D0E107200100000C2F
:100DF0000AE7072090E1072090E107200100000C9E
:100E000024E70720A0E10720A0E107200100000C53
:100E100009E70720B0E10720B0E107200100000C3E
:100E200015E70720C0E10720C0E107200100000C02
:100E300015E70720E0E10720E0E107200100000CB2
:100E40000EE707200AE70720F0C807200200000C81
:100E500018E7072008E7072060C607200100000CFC
:100E60001CE7072009E7072070C607200100000CD7
:100E70000EE707200AE70720F0C807200200000C51
:100E80000CE70720B0E2072090C607200400000C02
:100E90000CE7072030E2072030E207200100000CB9
:100EA0000DE70720F0E10720F0E107200100000C2A
:100EB00024E7072000E2072000E207200100000CE1
:100EC0000CE7072010E2072010E207200100000CC9
:100ED00014E7072020E2072020E207200100000C91
:100EE00014E7072040E2072040E207200100000C41
:100EF000B1E2072090E2072090E207200100000CF9
:100F0000B2E2072050E2072050E207200100000C67
:100F100024E7072060E2072060E207200100000CC0
:100F2000B1E2072070E2072070E207200100000C08
:100F300015E7072080E2072080E207200100000C6F
:100F400015E70720A0E20720A0E207200100000C1F
:100F50001CE70720C0E20720C0E207200100000CC8
:100F600018E70720D0E2072070C707200200000C16
:100F70001CE70720D2E20720D0E207200200000C85
:100F800018E70720E0E2072090C707200200000CC6
:100F90001CE70720E2E20720E0E207200200000C45
:100FA00018E70720F0E20720B0C707200200000C76
:100FB0001CE70720F2E20720F0E207200200000C05
:100FC00014E7072020E7072000C907200200000CD3
:100FD00018E7072020E70720E0C707200100000CE2
:100FE0001CE7072021E7072000C907200100000CAB
:100FF00014E7072020E70720E0C807200100000CC5
:1010000024E7072024E70720F0C807200100000C90
:101010001CE7072000E3072000E307200100000C85
:101020001CE7072010E3072010E307200100000C55
:101030001CE7072020E3072020E307200100000C25
:1010400018E7072034E3072050C807200200000CEF
:101050001CE7072036E3072030E307200200000CDE
:1010600018E7072044E3072070C807200200000C9F
:101070001CE7072046E3072040E307200200000C9E
:1010800018E7072054E3072090C807200200000C4F
:101090001CE7072056E3072050E307200200000C5E
:1010A00010C9072008E70720000000000100488C55
:1010B00004E707200CE70720C0C807200100480C00
:1010C00000D4072000E6072050C00720E0000008F9
:1010D00016E7072064E3072060E307200100000C07
:1010E00016E7072074E3072070E307200100000CD7
:1010F00008E7072004E7072050C007200400000C81
:1011000016E7072084E3072080E307200100000C96
:10111000DEC0ADDE000000000000000000000000A6
:1011200000000000000000000000000000000000BF
:1011300000000000000000000000000000000000AF
:10114000000000000000000000000000000000009F
:10115000000000000000000000000000000000008F
:10116000000000000000000000000000000000007F
:10117000000000000000000000000000000000006F
:10118000000000000000000000000000000000005F
:10119000000000000000000000000000000000004F
:1011A000000000000000000000000000000000003F
:1011B000000000000000000000000000000000002F
:1011C000000000000000000000000000000000001F
:1011D000000000000000000000000000000000000F
:1011E00000000000000000000000000000000000FF
:1011F00000000000000000000000000000000000EF
:1012000000C80720F0C70720C0C70720D0C70720A5
:1012100010C10720D0C0072030C10720F0C0072030
:1012200070C5072050C6072000C5072050C40720FE
:1012300060C4072030C4072030C3072050C10720F6
:1012400040C3072040C2072020C8072010C807203D
:1012500050C7072040C5072030C8072050C50720C9
:1012600080C6072060C7072040C8072080C7072026
:1012700060C80720A0C7072080C80720A0C8072093
:1012800010C50720A0C80720A0C80720A0C80720B5
:10129000A0C80720A0C80720A0C80720A0C8072012
:1012A000A0C80720A0C80720A0C80720A0C8072002
:1012B000A0C80720A0C80720A0C80720A0C80720F2
:1012C000A0C80720A0C80720A0C80720A0C80720E2
:1012D000A0C80720A0C80720A0C80720A0C80720D2
:1012E000A0C80720A0C80720A0C80720A0C80720C2
:1012F000A0C80720A0C80720A0C80720A0C80720B2
:1013000000000000000000000000000000000000DD
:1013100000010001000100010001000100010001C5
:1013200000000202000002020000020200000202AD
:101330000001020300010203000102030001020395
:10134000000000000404040400000000040404047D
:101350000001000104050405000100010405040565
:10136000000002020404060600000202040406064D
:101370000001020304050607000102030405060735
:10138000000000000000000008080808080808081D
:101390000001000100010001080908090809080905
:1013A000000002020000020208080A0A08080A0AED
:1013B000000102030001020308090A0B08090A0BD5
:1013C0000000000004040404080808080C0C0C0CBD
:1013D0000001000104050405080908090C0D0C0DA5
:1013E000000002020404060608080A0A0C0C0E0E8D
:1013F000000102030405060708090A0B0C0D0E0F75
:10140000000102030405060708090A0B0C0D0E0F64
:10141000010003020504070609080B0A0D0C0F0E54
:1014200002030001060704050A0B08090E0F0C0D44
:1014300003020100070605040B0A09080F0E0D0C34
:1014400004050607000102030C0D0E0F08090A0B24
:1014500005040706010003020D0C0F0E09080B0A14
:1014600006070405020300010E0F0C0D0A0B080904
:1014700007060504030201000F0E0D0C0B0A0908F4
:1014800008090A0B0C0D0E0F0001020304050607E4
:1014900009080B0A0D0C0F0E0100030205040706D4
:1014A0000A0B08090E0F0C0D0203000106070405C4
:1014B0000B0A09080F0E0D0C0302010007060504B4
:1014C0000C0D0E0F08090A0B0405060700010203A4
:1014D0000D0C0F0E09080B0A050407060100030294
:1014E0000E0F0C0D0A0B0809060704050203000184
:1014F0000F0E0D0C0B0A0908070605040302010074
:10150000FFFEFDFCFBFAF9F8F7F6F5F4F3F2F1F063
:10151000EFEEEDECEBEAE9E8E7E6E5E4E3E2E1E053
:10152000DFDEDDDCDBDAD9D8D7D6D5D4D3D2D1D043
:10153000CFCECDCCCBCAC9C8C7C6C5C4C3C2C1C033
:10154000BFBEBDBCBBBAB9B8B7B6B5B4B3B2B1B023
:10155000AFAEADACABAAA9A8A7A6A5A4A3A2A1A013
:101560009F9E9D9C9B9A9998979695949392919003
:101570008F8E8D8C8B8A89888786858483828180F3
:101580007F7E7D7C7B7A79787776757473727170E3
:101590006F6E6D6C6B6A69686766656463626160D3
:1015A0005F5E5D5C5B5A59585756555453525150C3
:1015B0004F4E4D4C4B4A49484746454443424140B3
:1015C0003F3E3D3C3B3A39383736353433323130A3
:1015D0002F2E2D2C2B2A2928272625242322212093
:1015E0001F1E1D1C1B1A1918171615141312111083
:1015F0000F0E0D0C0B0A0908070605040302010073
:10160000000102030405060708090A0B0C0D0E0F62
:10161000010103030505070709090B0B0D0D0F0F4A
:1016200002030203060706070A0B0A0B0E0F0E0F32
:1016300003030303070707070B0B0B0B0F0F0F0F1A
:1016400004050607040506070C0D0E0F0C0D0E0F02
:1016500005050707050507070D0D0F0F0D0D0F0FEA
:1016600006070607060706070E0F0E0F0E0F0E0FD2
:1016700007070707070707070F0F0F0F0F0F0F0FBA
:1016800008090A0B0C0D0E0F08090A0B0C0D0E0FA2
:1016900009090B0B0D0D0F0F09090B0B0D0D0F0F8A
:1016A0000A0B0A0B0E0F0E0F0A0B0A0B0E0F0E0F72
:1016B0000B0B0B0B0F0F0F0F0B0B0B0B0F0F0F0F5A
:1016C0000C0D0E0F0C0D0E0F0C0D0E0F0C0D0E0F42
:1016D0000D0D0F0F0D0D0F0F0D0D0F0F0D0D0F0F2A
:1016E0000E0F0E0F0E0F0E0F0E0F0E0F0E0F0E0F12
:1016F0000F0F0F0F0F0F0F0F0F0F0F0F0F0F0F0FFA
:101C0000000102030405060708090A0B0C0D0E0F5C
:101C1000101112131415161718191A1B1C1D1E1F4C
:101C2000202122232425262728292A2B2C2D2E2F3C
:101C3000303132333435363738393A3B3C3D3E3F2C
:101C4000404142434445464748494A4B4C4D4E4F1C
:101C5000505152535455565758595A5B5C5D5E5F0C
:101C6000606162636465666768696A6B6C6D6E6FFC
:101C7000707172737475767778797A7B7C7D7E7FEC
:101C8000808182838485868788898A8B8C8D8E8FDC
:101C9000909192939495969798999A9B9C9D9E9FCC
:101CA000A0A1A2A3A4A5A6A7A8A9AAABACADAEAFBC
:101CB000B0B1B2B3B4B5B6B7B8B9BABBBCBDBEBFAC
:101CC000C0C1C2C3C4C5C6C7C8C9CACBCCCDCECF9C
:101CD000D0D1D2D3D4D5D6D7D8D9DADBDCDDDEDF8C
:101CE000E0E1E2E3E4E5E6E7E8E9EAEBECEDEEEF7C
:101CF000F0F1F2F3F4F5F6F7F8F9FAFBFCFDFEFF6C
:101D0000000102030405060708090A0B0C0D0E0F5B
:101D1000101112131415161718191A1B1C1D1E1F4B
:101D2000202122232425262728292A2B2C2D2E2F3B
:101D3000303132333435363738393A3B3C3D3E3F2B
:101D4000404142434445464748494A4B4C4D4E4F1B
:101D5000505152535455565758595A5B5C5D5E5F0B
:101D6000606162636465666768696A6B6C6D6E6FFB
:101D7000707172737475767778797A7B7C7D7E7FEB
:101D8000808182838485868788898A8B8C8D8E8FDB
:101D9000909192939495969798999A9B9C9D9E9FCB
:101DA000A0A1A2A3A4A5A6A7A8A9AAABACADAEAFBB
:101DB000B0B1B2B3B4B5B6B7B8B9BABBBCBDBEBFAB
:101DC000C0C1C2C3C4C5C6C7C8C9CACBCCCDCECF9B
:101DD000D0D1D2D3D4D5D6D7D8D9DADBDCDDDEDF8B
:101DE000E0E1E2E3E4E5E6E7E8E9EAEBECEDEEEF7B
:101DF000F0F1F2F3F4F5F6F7F8F9FAFBFCFDFEFF6B
:101E0000000102030405060708090A0B0C0D0E0F5A
:101E1000000102030405060708090A0B0C0D0E0F4A
:101E2000000102030405060708090A0B0C0D0E0F3A
:101E3000000102030405060708090A0B0C0D0E0F2A
:101E4000000102030405060708090A0B0C0D0E0F1A
:101E5000000102030405060708090A0B0C0D0E0F0A
:101E6000000102030405060708090A0B0C0D0E0FFA
:101E7000000102030405060708090A0B0C0D0E0FEA
:101E8000000102030405060708090A0B0C0D0E0FDA
:101E9000000102030405060708090A0B0C0D0E0FCA
:101EA000000102030405060708090A0B0C0D0E0FBA
:101EB000000102030405060708090A0B0C0D0E0FAA
:101EC000000102030405060708090A0B0C0D0E0F9A
:101ED000000102030405060708090A0B0C0D0E0F8A
:101EE000000102030405060708090A0B0C0D0E0F7A
:101EF000000102030405060708090A0B0C0D0E0F6A
:101F000000102030405060708090A0B0C0D0E0F051
:101F100000102030405060708090A0B0C0D0E0F041
:101F200000102030405060708090A0B0C0D0E0F031
:101F300000102030405060708090A0B0C0D0E0F021
:101F400000102030405060708090A0B0C0D0E0F011
:101F500000102030405060708090A0B0C0D0E0F001
:101F600000102030405060708090A0B0C0D0E0F0F1
:101F700000102030405060708090A0B0C0D0E0F0E1
:101F800000102030405060708090A0B0C0D0E0F0D1
:101F900000102030405060708090A0B0C0D0E0F0C1
:101FA00000102030405060708090A0B0C0D0E0F0B1
:101FB00000102030405060708090A0B0C0D0E0F0A1
:101FC00000102030405060708090A0B0C0D0E0F091
:101FD00000102030405060708090A0B0C0D0E0F081
:101FE00000102030405060708090A0B0C0D0E0F071
:101FF00000102030405060708090A0B0C0D0E0F061
:102000000004080C1014181C2024282C3034383CF0
:102010004044484C5054585C6064686C7074787CE0
:102020008084888C9094989CA0A4A8ACB0B4B8BCD0
:10203000C0C4C8CCD0D4D8DCE0E4E8ECF0F4F8FCC0
:102040000004080C1014181C2024282C3034383CB0
:102050004044484C5054585C6064686C7074787CA0
:102060008084888C9094989CA0A4A8ACB0B4B8BC90
:10207000C0C4C8CCD0D4D8DCE0E4E8ECF0F4F8FC80
:102080000004080C1014181C2024282C3034383C70
:102090004044484C5054585C6064686C7074787C60
:1020A0008084888C9094989CA0A4A8ACB0B4B8BC50
:1020B000C0C4C8CCD0D4D8DCE0E4E8ECF0F4F8FC40
:1020C0000004080C1014181C2024282C3034383C30
:1020D0004044484C5054585C6064686C7074787C20
:1020E0008084888C9094989CA0A4A8ACB0B4B8BC10
:1020F000C0C4C8CCD0D4D8DCE0E4E8ECF0F4F8FC00
:1021000000020406080A0C0E10121416181A1C1EDF
:1021100020222426282A2C2E30323436383A3C3ECF
:1021200040424446484A4C4E50525456585A5C5EBF
:1021300060626466686A6C6E70727476787A7C7EAF
:1021400080828486888A8C8E90929496989A9C9E9F
:10215000A0A2A4A6A8AAACAEB0B2B4B6B8BABCBE8F
:10216000C0C2C4C6C8CACCCED0D2D4D6D8DADCDE7F
:10217000E0E2E4E6E8EAECEEF0F2F4F6F8FAFCFE6F
:1021800001030507090B0D0F11131517191B1D1F4F
:1021900021232527292B2D2F31333537393B3D3F3F
:1021A00041434547494B4D4F51535557595B5D5F2F
:1021B00061636567696B6D6F71737577797B7D7F1F
:1021C00081838587898B8D8F91939597999B9D9F0F
:1021D000A1A3A5A7A9ABADAFB1B3B5B7B9BBBDBFFF
:1021E000C1C3C5C7C9CBCDCFD1D3D5D7D9DBDDDFEF
:1021F000E1E3E5E7E9EBEDEFF1F3F5F7F9FBFDFFDF
:102200000080018102820383048405850686078796
:10221000088809890A8A0B8B0C8C0D8D0E8E0F8F06
:102220001090119112921393149415951696179776
:10223000189819991A9A1B9B1C9C1D9D1E9E1F9FE6
:1022400020A021A122A223A324A425A526A627A756
:1022500028A829A92AAA2BAB2CAC2DAD2EAE2FAFC6
:1022600030B031B132B233B334B435B536B637B736
:1022700038B839B93ABA3BBB3CBC3DBD3EBE3FBFA6
:1022800040C041C142C243C344C445C546C647C716
:1022900048C849C94ACA4BCB4CCC4DCD4ECE4FCF86
:1022A00050D051D152D253D354D455D556D657D7F6
:1022B00058D859D95ADA5BDB5CDC5DDD5EDE5FDF66
:1022C00060E061E162E263E364E465E566E667E7D6
:1022D00068E869E96AEA6BEB6CEC6DED6EEE6FEF46
:1022E00070F071F172F273F374F475F576F677F7B6
:1022F00078F879F97AFA7BFB7CFC7DFD7EFE7FFF26
:102300001000F70D2451F70D3441F70DEEEE001FCC
:10231000FC00E401E4FDE403FEFFE6030100E80243
:102320000000EA02500000080800E4020010E60283
:102330000100E8020000EA025000000814C0E402B4
:102340000920E6020000E8024000EA02500000080E
:1023500008000001000001011000000DFF00000452
:1023600001010104580000080804010C8400000861
:1023700001000004FF0101040000020E010203112C
:102380006800000810DEE00C0CADE10C08C0E20CA7
:1023900008DEE30D01E0001FFDFC10030100010158
:1023A000C300020110FE031902030311000303130B
:1023B000032322033801201703232203DC00201704
:1023C00010FE031A1400030D01100407011010067B
:1023D00004111106A4000008646E651F01002301AA
:1023E00000E8250E00E9260E00EA270E00EB280E75
:1023F0002322240FE4E6291D1800240DE8292910C2
:10240000E92A2A10EA2B2B10EB2C2C1024010008AF
:102410002529290F262A2A0F272B2B0F282C2C0F92
:1024200024010008E4E6291E0C80230D0023231359
:10243000F0000008202100090851F70D20210009B3
:102440001F102302001025021810270280002D0102
:102450002723291D2D29290FF800290D2523221AAC
:102460002021000900000000000000000000000022
:10247000114ED8072080DC042201120C1DCA07204F
:10248000B80C2E10C0072004109809E6072018E7A2
:10249000072030101A1C109A40101A2010413910D1
:1024A000311A14101A6020120113480C1AD41C1A85
:1024B000E5601910111A0120190C1A09203AC020E0
:1024C00049101A08109A70101A24106A90104AD0F5
:1024D000409AE0402970CBE0C820110A15C120596C
:1024E000800A1D20200A1640201AD2181AE4A019CA
:1024F0002069101A01106A80104AD7106A9010598A
:10250000509AA05029206AB0204ACB10DAC0405B14
:1025100020C2104AD610DAE020DAF06011193069D2
:10252000601A02206A104019602910DA60309A306F
:1025300030B9E0197029E09AD0E029106A6050594A
:10254000F06A701059906A801059609A9060292042
:102550006AA0204ACC10DAB040CB10C3F0DAD02009
:10256000DAE060DAF0F011694019602910DA5030D1
:102570001A2020091AF06AC030DACD2019F029207B
:102580006A6060191029906A701059A06A80105909
:10259000709A907029206AA0204ACE10DAB0408B41
:1025A00010C4902910DAD020DAE0609AF06029F0A7
:1025B00011694019602910DA50301A20206930B9A9
:1025C000E0197029E05AC0301A141C29245A80508E
:1025D0005A04406910290C1A25246A901059209A2F
:1025E000B0601A0920DAF0209AD0201A08206AA0D8
:1025F000204AD0209AE0201A24206AC020711AF0C4
:10260000B031120CCAD2C0290C111EE6072070C5C9
:10261000F899701AA010A9901AE010A9909AC020F9
:1026200029906A902059909AD0202990DAB04011D0
:102630008AC6201A0A201A4010A9209A2020298030
:10264000DAF0609A30202960DA10409AB0201BB18D
:10265000E240D9209AD0201AB0206AA0205960DA2E
:10266000E060DAC0408B10C7201AB2402944A9208C
:102670009A30202980111910A9609A402029606A97
:102680002020311A20102ED0C8072004101AD61C82
:1026900019101AE010A920E910112AC910BA244013
:1026A000120113480CDAD940DADA10CAD710394CC3
:1026B000310A13F010DA24104A48102CE6072010D3
:1026C00029B0A910794059105A02B0016C000000DD
:1026D00000000000000000000000000000000000FA
:1026E00000000000000000000000000000000000EA
:1026F00000000000000000000000000000000000DA
:1027000000000000000000000000000000000000C9
:1027100000000000000000000000000000000000B9
:1027200000000000000000000000000000000000A9
:102730000000000000000000000000000000000099
:102740000000000000000000000000000000000089
:102750000000000000000000000000000000000079
:102760000000000000000000000000000000000069
:04000005000000CD2A
:00000001FF
