:020000040000FA
:1000000068080010C5010000CD010000CF0100000C
:10001000D1010000D3010000D50100000000000064
:10002000000000000000000000000000D7010000F8
:10003000D901000000000000DB010000DD0100002C
:10004000DF010000DF010000DF010000DF01000030
:10005000DF010000DF010000DF010000DF01000020
:10006000DF010000DF010000DF010000DF01000010
:10007000DF010000DF010000DF010000DF01000000
:10008000DF010000DF010000DF010000DF010000F0
:10009000DF010000DF010000DF010000DF010000E0
:1000A000DF010000DF010000D9020000DF010000D5
:1000B000DF010000DF010000DF010000DF010000C0
:1000C000DF010000DF010000DF01000000F002F8A6
:1000D00000F068F80AA090E8000C82448344AAF17A
:1000E0000107DA4501D100F05DF8AFF2090EBAE878
:1000F0000F0013F0010F18BFFB1A43F0010318475C
:1001000070050000C00500000A444FF0000C10F814
:10011000013B13F0070408BF10F8014B1D1108BF85
:1001200010F8015B641E05D010F8016B641E01F825
:10013000016BF9D113F0080F1EBF10F8014BAD1C75
:100140000C1B09D16D1E58BF01F801CBFAD505E093
:1001500014F8016B01F8016B6D1EF9D59142D6D3ED
:1001600070470000103A24BF78C878C1FAD8520707
:1001700024BF30C830C144BF04680C607047000021
:100180000023002400250026103A28BF78C1FBD8A0
:10019000520728BF30C148BF0B6070471FB51FBD55
:1001A00010B510BD00F0ACF81146FFF7F7FF00F0F6
:1001B00046FA00F083F803B4FFF7F2FF03BC00F047
:1001C0001FFA00000948804709480047FEE7FEE79C
:1001D000FEE7FEE7FEE7FEE7FEE7FEE7FEE7FEE7F7
:1001E00004480549054A064B7047000065050000B4
:1001F000CD000000680000106808001068040010BE
:1002000068040010704710B5002000F032F8FFF7C6
:10021000C7FFBDE81040012000F0F2B94FF0000226
:1002200000B5134694469646203922BFA0E80C50EC
:10023000A0E80C50B1F12001BFF4F7AF090728BFC7
:10024000A0E80C5048BF0CC05DF804EB890028BF43
:1002500040F8042B08BF704748BF20F8022B11F06C
:10026000804F18BF00F8012B7047704770477047E8
:10027000704710B500F00AF8BDE81040AFF30080F9
:10028000002801D000F0BCB97047000010B5002173
:1002900002A000F05AF8012010BD00005349474168
:1002A0004252543A2041626E6F726D616C207465E7
:1002B000726D696E6174696F6E00000010B504465E
:1002C000AFF300802046BDE81040FFF774BF000088
:1002D000004870470000001044F20000C5F2000022
:1002E0000168CA0706D040F260020123C1F2000291
:1002F000136040BF0161816070474100FFFFFFFF55
:100300007546FFF7E5FFAE4605006946534620F007
:100310000700854618B020B5FFF762FFBDE8204012
:100320004FF000064FF000074FF000084FF0000BB1
:10033000AC46ACE8C009ACE8C009ACE8C009ACE820
:10034000C00921F007018D46704770B505460C467F
:100350000A2000E06D1C00F05DF935B12878002816
:10036000F8D102E0641C00F055F914B1207800289F
:10037000F8D1BDE870400A2000F04CB94CF680007E
:10038000C2F2070070474EF20040C2F20700704709
:10039000BCB5FFF7F8FF00F029F8FFF7EFFF00F01A
:1003A0007FF840F2000140F24C620020C2F20801E6
:1003B000C0F20002B0F5807F15D00B5C8DF80730DD
:1003C0009DF807307BB121280BD89DF807409DF898
:1003D0000750135C640865F3C71484F0C3049C429F
:1003E00002D10130E6E7BCBDFFF70DFF10B54FF4B9
:1003F00096710446FFF712FF4DF60010C2F2070097
:10040000C4F80401C4F80C010020B0F5807F07D0C7
:10041000C1076FF05A0108BF5A2121540130F4E797
:100420004BF6D1214BF6D0224BF6D220C4E946211F
:1004300040F2FA21C4F820014AF6DE50C0F2000171
:10044000CDF6C0600978C4F8E0000020A4F8FC00F4
:1004500084F8F71040F20001C2F208010A0E84F895
:10046000FF200A0C84F8FE20D4F80C21130E84F827
:10047000F82084F8FB30130C120A84F8F92040F2BB
:100480004C6284F8FA30C0F20002B0F5807F08BFF9
:1004900010BD212894BF135C00230B540130F4E7F6
:1004A000B0B544F21001C5F200010A6A42F001023F
:1004B0000A62D1F8002142F48022C1F80021D1F86B
:1004C0000021920301D500BFF9E70023C1F80031F4
:1004D00090E83400C068C1F8F020C1F8F440C1F8D9
:1004E000F850C1F8FC004CF218004FF480024FF0B5
:1004F0008064C2F209000260012241F8082C0A60FF
:1005000040F26002C1F2000213604EF20013CEF21C
:1005100000031C6048F20104D1F800312343C1F804
:100520000031116809B920BFFBE74FF48001416039
:10053000B0BD4CF2C400C4F20F00016841F000519C
:1005400001604CF20400C4F20200016821F4405141
:1005500001604CF20000C2F20900016841F4800120
:10056000016070474CF200002021C4F20F00C0F877
:10057000A011D0F8A011890603D5D0F8A011490622
:10058000FBD5032163225523C0F804110021C0F2DA
:100590000502C0F8A811C0F8AC110121C0F80C1177
:1005A000C0F88420AA22C0F88C20C0F88C30C0F893
:1005B0008010C0F88C20C0F88C30D0F88810490129
:1005C000FBD50321C0F88010AA21C0F88C1055215A
:1005D000C0F88C10D0F8881001F04071B1F1407F64
:1005E000F8D100214FF40212C0F80811C0F8C4205D
:1005F000C0F8C8110422016862F30F31016070472E
:100600004EF6F050CEF200000168C90700D000BEDF
:1006100020BFF9E740F60061CEF20001D1F880205A
:10062000D2070BD00968C90708D04FF060410A68AB
:100630000AB900BFFBE74FF060410870704780B512
:10064000FFF777FFFFF7A4FE002080BDE771F5F507
:1006500074D3F2FA73F871D3F47178D3EBE5DBDF7E
:10066000DBD3E16563D37874FAF5F153C6C30000B8
:100670000008000000C00720901A0000640100007C
:100680009022000090DA07207007000008010000A7
:10069000C006000000000010680800008001000093
:1006A0009025000000E207202C03000080010000DC
:1006B00090250000000008200001000080010000DB
:1006C000000000000000000000000000000000002A
:1006D000000000000000000000000000000000001A
:1006E000000000000000000000000000000000000A
:1006F00000000000000000000000000000000000FA
:1007000000000000000000000000000000000000E9
:1007100000000000000000000000000000000000D9
:1007200000000000000000000000000000000000C9
:1007300000000000000000000000000000000000B9
:1007400000000000000000000000000000000000A9
:100750000000000000000000000000000000000099
:100760000000000000000000000000000000000089
:100770000000000000000000000000000000000079
:100780000000000000000000000000000000000069
:100790000000000000000000000000000000000059
:1007A0000000000000000000000000000000000049
:1007B0000000000000000000000000000000000039
:1007C0000000000000000000000000000000000029
:1007D0000000000000000000000000000000000019
:1007E0000000000000000000000000000000000009
:1007F00000000000000000000000000000000000F9
:1008000017E5072090DA072090DA07200100000C96
:1008100000D2072018E5072020C007200C000008A0
:1008200014E50720B0DA0720B0DA07200100000C39
:1008300015E50720C0DA0720C0DA07200100000C08
:1008400016E50720D0DA0720D0DA07200100000CD7
:1008500004E50720E0DA0720E0DA07200400000CB6
:1008600004CE072000E30720B0C007200001000CE1
:1008700005E50720F0DA0720F0DA07200100000C78
:1008800024E5072000DB072000DB07200100000C27
:1008900004D2072000E30720A0C007200001000CBD
:1008A00004E5072010DB072010DB07200100000C07
:1008B00004E5072020DB072020DB07200100000CD7
:1008C00006E507200AE5072000C007200100240CE8
:1008D0001CE5072030DB072030DB07200100000C7F
:1008E00014E5072040DB072040DB07200100000C57
:1008F0001CE5072050DB072050DB07200100000C1F
:1009000018E5072060DB072060DB07200100000CF2
:100910001CE5072070DB072070DB07200100000CBE
:1009200014E5072080DB072080DB07200100000C96
:100930001CE5072090DB072090DB07200100000C5E
:1009400018E50720A0DB0720A0DB07200100000C32
:100950001CE5072090DC072090DC07200100000C3C
:100960001CE50720B0DB0720B0DB07200100000CEE
:1009700018E50720C0DB0720C0DB07200100000CC2
:1009800001E20720D0DB0720D0DB07200100000CAC
:1009900001E20720E0DB0720E0DB07200100000C7C
:1009A00000E20720F0DB0720F0DB07200100000C4D
:1009B00001E2072000DC072000DC07200100000C1A
:1009C00001E2072010DC072010DC07200100000CEA
:1009D00018E5072020DC072020DC07200100000CA0
:1009E00001E2072030DC072030DC07200100000C8A
:1009F00001E2072040DC072040DC07200100000C5A
:100A000000E2072050DC072050DC07200100000C2A
:100A100002E2072060DC072060DC07200100000CF8
:100A200001E2072070DC072070DC07200100000CC9
:100A300002E2072080DC072080DC07200100000C98
:100A40001CE5072080DD072080DD07200100000C69
:100A50001CE50720A0DC0720A0DC07200100000C1B
:100A600018E50720B0DC0720B0DC07200100000CEF
:100A700001E20720C0DC0720C0DC07200100000CD9
:100A800001E20720D0DC0720D0DC07200100000CA9
:100A900000E20720E0DC0720E0DC07200100000C7A
:100AA00001E20720F0DC0720F0DC07200100000C49
:100AB00001E2072000DD072000DD07200100000C17
:100AC00018E5072010DD072010DD07200100000CCD
:100AD00001E2072020DD072020DD07200100000CB7
:100AE00001E2072030DD072030DD07200100000C87
:100AF00000E2072040DD072040DD07200100000C58
:100B000002E2072050DD072050DD07200100000C25
:100B100001E2072060DD072060DD07200100000CF6
:100B200002E2072070DD072070DD07200100000CC5
:100B30001CE5072090DD072090DD07200100000C58
:100B40001CE5072080DE072080DE07200100000C66
:100B50001CE50720A0DD0720A0DD07200100000C18
:100B600018E50720B0DD0720B0DD07200100000CEC
:100B700001E20720C0DD0720C0DD07200100000CD6
:100B800001E20720D0DD0720D0DD07200100000CA6
:100B900000E20720E0DD0720E0DD07200100000C77
:100BA00001E20720F0DD0720F0DD07200100000C46
:100BB00001E2072000DE072000DE07200100000C14
:100BC00018E5072010DE072010DE07200100000CCA
:100BD00001E2072020DE072020DE07200100000CB4
:100BE00001E2072030DE072030DE07200100000C84
:100BF00000E2072040DE072040DE07200100000C55
:100C000002E2072050DE072050DE07200100000C22
:100C100001E2072060DE072060DE07200100000CF3
:100C200002E2072070DE072070DE07200100000CC2
:100C300004D2072000E3072040C407200001000879
:100C400015E5072094DE072090DE07200100000C48
:100C50001CE5072015E5072030C407200100000C23
:100C600014E5072000E3072070C4072000010008F6
:100C700015E50720A4DE0720A0DE07200100000CF8
:100C800020E50720B0DE0720B0DE07200100000CC1
:100C900004E5072000DF072000DF07200100000C2B
:100CA00005E50720C0DE0720C0DE07200100000C9C
:100CB00024E50720D0DE0720D0DE07200100000C4D
:100CC00004E50720E0DE0720E0DE07200100000C3D
:100CD00025E50720F0DE0720F0DE07200100000CEC
:100CE00025E5072010DF072010DF07200100000C9A
:100CF00006E507200AE50720C0C807200200000C0F
:100D00001CE5072015E5072060C407200100000C42
:100D10001CE5072020DF072020DF07200100000C52
:100D200008E5072020E5072030C507200200000C59
:100D300016E5072034DF072030DF07200100000C14
:100D40000CE5072008E5072050C507200400000C2B
:100D50000CE5072080DF072080DF07200100000C62
:100D60000DE5072040DF072040DF07200100000CD1
:100D700024E5072050DF072050DF07200100000C8A
:100D80000CE5072060DF072060DF07200100000C72
:100D900014E5072070DF072070DF07200100000C3A
:100DA00014E5072090DF072090DF07200100000CEA
:100DB00009E50720E0DF0720E0DF07200100000C45
:100DC0000AE50720A0DF0720A0DF07200100000CB4
:100DD00024E50720B0DF0720B0DF07200100000C6A
:100DE00009E50720C0DF0720C0DF07200100000C55
:100DF00015E50720D0DF0720D0DF07200100000C19
:100E000015E50720F0DF0720F0DF07200100000CC8
:100E10000EE507200AE50720C0C807200200000CE5
:100E200018E5072008E5072030C607200100000C60
:100E30001CE5072009E5072040C607200100000C3B
:100E40000EE507200AE50720C0C807200200000CB5
:100E50000CE50720C0E0072060C607200400000C56
:100E60000CE5072040E0072040E007200100000CCF
:100E70000DE5072000E0072000E007200100000C3E
:100E800024E5072010E0072010E007200100000CF7
:100E90000CE5072020E0072020E007200100000CDF
:100EA00014E5072030E0072030E007200100000CA7
:100EB00014E5072050E0072050E007200100000C57
:100EC000C1E00720A0E00720A0E007200100000CFF
:100ED000C2E0072060E0072060E007200100000C6E
:100EE00024E5072070E0072070E007200100000CD7
:100EF000C1E0072080E0072080E007200100000C0F
:100F000015E5072090E0072090E007200100000C85
:100F100015E50720B0E00720B0E007200100000C35
:100F20001CE50720D0E00720D0E007200100000CDE
:100F300018E50720E0E0072040C707200200000C6A
:100F40001CE50720E2E00720E0E007200200000C9B
:100F500018E50720F0E0072060C707200200000C1A
:100F60001CE50720F2E00720F0E007200200000C5B
:100F700018E5072000E1072080C707200200000CC9
:100F80001CE5072002E1072000E107200200000C19
:100F900014E5072020E50720D0C807200200000C38
:100FA00018E5072020E50720B0C707200100000C46
:100FB0001CE5072021E50720D0C807200100000C10
:100FC00014E5072020E50720B0C807200100000C29
:100FD00024E5072024E50720C0C807200100000CF5
:100FE0001CE5072010E1072010E107200100000C9C
:100FF0001CE5072020E1072020E107200100000C6C
:101000001CE5072030E1072030E107200100000C3B
:1010100018E5072044E1072020C807200200000C43
:101020001CE5072046E1072040E107200200000CF4
:1010300018E5072054E1072040C807200200000CF3
:101040001CE5072056E1072050E107200200000CB4
:1010500018E5072064E1072060C807200200000CA3
:101060001CE5072066E1072060E107200200000C74
:10107000E0C8072008E50720000000000100488CB8
:1010800004E507200CE5072090C807200100480C64
:1010900000D2072000E4072050C00720E00000082D
:1010A00016E5072074E1072070E107200100000C1D
:1010B00016E5072084E1072080E107200100000CED
:1010C00008E5072004E5072050C007200400000CB5
:1010D00016E5072094E1072090E107200100000CAD
:1010E000DEC0ADDE000000000000000000000000D7
:1010F00000000000000000000000000000000000F0
:10110000D0C70720C0C7072090C70720A0C7072067
:1011100010C10720D0C0072030C10720F0C0072031
:1011200040C5072020C6072000C5072050C407205F
:1011300060C4072030C4072030C3072050C10720F7
:1011400040C3072040C20720F0C70720E0C70720A0
:1011500020C7072010C5072000C8072020C507208A
:1011600050C6072030C7072010C8072050C70720E7
:1011700030C8072070C7072050C8072070C8072054
:10118000000000000000000000000000000000005F
:10119000000000000000000000000000000000004F
:1011A000000000000000000000000000000000003F
:1011B000000000000000000000000000000000002F
:1011C000000000000000000000000000000000001F
:1011D000000000000000000000000000000000000F
:1011E00000000000000000000000000000000000FF
:1011F00000000000000000000000000000000000EF
:1012000000000000000000000000000000000000DE
:1012100000010001000100010001000100010001C6
:1012200000000202000002020000020200000202AE
:101230000001020300010203000102030001020396
:10124000000000000404040400000000040404047E
:101250000001000104050405000100010405040566
:10126000000002020404060600000202040406064E
:101270000001020304050607000102030405060736
:10128000000000000000000008080808080808081E
:101290000001000100010001080908090809080906
:1012A000000002020000020208080A0A08080A0AEE
:1012B000000102030001020308090A0B08090A0BD6
:1012C0000000000004040404080808080C0C0C0CBE
:1012D0000001000104050405080908090C0D0C0DA6
:1012E000000002020404060608080A0A0C0C0E0E8E
:1012F000000102030405060708090A0B0C0D0E0F76
:10130000000102030405060708090A0B0C0D0E0F65
:10131000010003020504070609080B0A0D0C0F0E55
:1013200002030001060704050A0B08090E0F0C0D45
:1013300003020100070605040B0A09080F0E0D0C35
:1013400004050607000102030C0D0E0F08090A0B25
:1013500005040706010003020D0C0F0E09080B0A15
:1013600006070405020300010E0F0C0D0A0B080905
:1013700007060504030201000F0E0D0C0B0A0908F5
:1013800008090A0B0C0D0E0F0001020304050607E5
:1013900009080B0A0D0C0F0E0100030205040706D5
:1013A0000A0B08090E0F0C0D0203000106070405C5
:1013B0000B0A09080F0E0D0C0302010007060504B5
:1013C0000C0D0E0F08090A0B0405060700010203A5
:1013D0000D0C0F0E09080B0A050407060100030295
:1013E0000E0F0C0D0A0B0809060704050203000185
:1013F0000F0E0D0C0B0A0908070605040302010075
:10140000FFFEFDFCFBFAF9F8F7F6F5F4F3F2F1F064
:10141000EFEEEDECEBEAE9E8E7E6E5E4E3E2E1E054
:10142000DFDEDDDCDBDAD9D8D7D6D5D4D3D2D1D044
:10143000CFCECDCCCBCAC9C8C7C6C5C4C3C2C1C034
:10144000BFBEBDBCBBBAB9B8B7B6B5B4B3B2B1B024
:10145000AFAEADACABAAA9A8A7A6A5A4A3A2A1A014
:101460009F9E9D9C9B9A9998979695949392919004
:101470008F8E8D8C8B8A89888786858483828180F4
:101480007F7E7D7C7B7A79787776757473727170E4
:101490006F6E6D6C6B6A69686766656463626160D4
:1014A0005F5E5D5C5B5A59585756555453525150C4
:1014B0004F4E4D4C4B4A49484746454443424140B4
:1014C0003F3E3D3C3B3A39383736353433323130A4
:1014D0002F2E2D2C2B2A2928272625242322212094
:1014E0001F1E1D1C1B1A1918171615141312111084
:1014F0000F0E0D0C0B0A0908070605040302010074
:10150000000102030405060708090A0B0C0D0E0F63
:10151000010103030505070709090B0B0D0D0F0F4B
:1015200002030203060706070A0B0A0B0E0F0E0F33
:1015300003030303070707070B0B0B0B0F0F0F0F1B
:1015400004050607040506070C0D0E0F0C0D0E0F03
:1015500005050707050507070D0D0F0F0D0D0F0FEB
:1015600006070607060706070E0F0E0F0E0F0E0FD3
:1015700007070707070707070F0F0F0F0F0F0F0FBB
:1015800008090A0B0C0D0E0F08090A0B0C0D0E0FA3
:1015900009090B0B0D0D0F0F09090B0B0D0D0F0F8B
:1015A0000A0B0A0B0E0F0E0F0A0B0A0B0E0F0E0F73
:1015B0000B0B0B0B0F0F0F0F0B0B0B0B0F0F0F0F5B
:1015C0000C0D0E0F0C0D0E0F0C0D0E0F0C0D0E0F43
:1015D0000D0D0F0F0D0D0F0F0D0D0F0F0D0D0F0F2B
:1015E0000E0F0E0F0E0F0E0F0E0F0E0F0E0F0E0F13
:1015F0000F0F0F0F0F0F0F0F0F0F0F0F0F0F0F0FFB
:101A0000000102030405060708090A0B0C0D0E0F5E
:101A1000101112131415161718191A1B1C1D1E1F4E
:101A2000202122232425262728292A2B2C2D2E2F3E
:101A3000303132333435363738393A3B3C3D3E3F2E
:101A4000404142434445464748494A4B4C4D4E4F1E
:101A5000505152535455565758595A5B5C5D5E5F0E
:101A6000606162636465666768696A6B6C6D6E6FFE
:101A7000707172737475767778797A7B7C7D7E7FEE
:101A8000808182838485868788898A8B8C8D8E8FDE
:101A9000909192939495969798999A9B9C9D9E9FCE
:101AA000A0A1A2A3A4A5A6A7A8A9AAABACADAEAFBE
:101AB000B0B1B2B3B4B5B6B7B8B9BABBBCBDBEBFAE
:101AC000C0C1C2C3C4C5C6C7C8C9CACBCCCDCECF9E
:101AD000D0D1D2D3D4D5D6D7D8D9DADBDCDDDEDF8E
:101AE000E0E1E2E3E4E5E6E7E8E9EAEBECEDEEEF7E
:101AF000F0F1F2F3F4F5F6F7F8F9FAFBFCFDFEFF6E
:101B0000000102030405060708090A0B0C0D0E0F5D
:101B1000101112131415161718191A1B1C1D1E1F4D
:101B2000202122232425262728292A2B2C2D2E2F3D
:101B3000303132333435363738393A3B3C3D3E3F2D
:101B4000404142434445464748494A4B4C4D4E4F1D
:101B5000505152535455565758595A5B5C5D5E5F0D
:101B6000606162636465666768696A6B6C6D6E6FFD
:101B7000707172737475767778797A7B7C7D7E7FED
:101B8000808182838485868788898A8B8C8D8E8FDD
:101B9000909192939495969798999A9B9C9D9E9FCD
:101BA000A0A1A2A3A4A5A6A7A8A9AAABACADAEAFBD
:101BB000B0B1B2B3B4B5B6B7B8B9BABBBCBDBEBFAD
:101BC000C0C1C2C3C4C5C6C7C8C9CACBCCCDCECF9D
:101BD000D0D1D2D3D4D5D6D7D8D9DADBDCDDDEDF8D
:101BE000E0E1E2E3E4E5E6E7E8E9EAEBECEDEEEF7D
:101BF000F0F1F2F3F4F5F6F7F8F9FAFBFCFDFEFF6D
:101C0000000102030405060708090A0B0C0D0E0F5C
:101C1000000102030405060708090A0B0C0D0E0F4C
:101C2000000102030405060708090A0B0C0D0E0F3C
:101C3000000102030405060708090A0B0C0D0E0F2C
:101C4000000102030405060708090A0B0C0D0E0F1C
:101C5000000102030405060708090A0B0C0D0E0F0C
:101C6000000102030405060708090A0B0C0D0E0FFC
:101C7000000102030405060708090A0B0C0D0E0FEC
:101C8000000102030405060708090A0B0C0D0E0FDC
:101C9000000102030405060708090A0B0C0D0E0FCC
:101CA000000102030405060708090A0B0C0D0E0FBC
:101CB000000102030405060708090A0B0C0D0E0FAC
:101CC000000102030405060708090A0B0C0D0E0F9C
:101CD000000102030405060708090A0B0C0D0E0F8C
:101CE000000102030405060708090A0B0C0D0E0F7C
:101CF000000102030405060708090A0B0C0D0E0F6C
:101D000000102030405060708090A0B0C0D0E0F053
:101D100000102030405060708090A0B0C0D0E0F043
:101D200000102030405060708090A0B0C0D0E0F033
:101D300000102030405060708090A0B0C0D0E0F023
:101D400000102030405060708090A0B0C0D0E0F013
:101D500000102030405060708090A0B0C0D0E0F003
:101D600000102030405060708090A0B0C0D0E0F0F3
:101D700000102030405060708090A0B0C0D0E0F0E3
:101D800000102030405060708090A0B0C0D0E0F0D3
:101D900000102030405060708090A0B0C0D0E0F0C3
:101DA00000102030405060708090A0B0C0D0E0F0B3
:101DB00000102030405060708090A0B0C0D0E0F0A3
:101DC00000102030405060708090A0B0C0D0E0F093
:101DD00000102030405060708090A0B0C0D0E0F083
:101DE00000102030405060708090A0B0C0D0E0F073
:101DF00000102030405060708090A0B0C0D0E0F063
:101E00000004080C1014181C2024282C3034383CF2
:101E10004044484C5054585C6064686C7074787CE2
:101E20008084888C9094989CA0A4A8ACB0B4B8BCD2
:101E3000C0C4C8CCD0D4D8DCE0E4E8ECF0F4F8FCC2
:101E40000004080C1014181C2024282C3034383CB2
:101E50004044484C5054585C6064686C7074787CA2
:101E60008084888C9094989CA0A4A8ACB0B4B8BC92
:101E7000C0C4C8CCD0D4D8DCE0E4E8ECF0F4F8FC82
:101E80000004080C1014181C2024282C3034383C72
:101E90004044484C5054585C6064686C7074787C62
:101EA0008084888C9094989CA0A4A8ACB0B4B8BC52
:101EB000C0C4C8CCD0D4D8DCE0E4E8ECF0F4F8FC42
:101EC0000004080C1014181C2024282C3034383C32
:101ED0004044484C5054585C6064686C7074787C22
:101EE0008084888C9094989CA0A4A8ACB0B4B8BC12
:101EF000C0C4C8CCD0D4D8DCE0E4E8ECF0F4F8FC02
:101F000000020406080A0C0E10121416181A1C1EE1
:101F100020222426282A2C2E30323436383A3C3ED1
:101F200040424446484A4C4E50525456585A5C5EC1
:101F300060626466686A6C6E70727476787A7C7EB1
:101F400080828486888A8C8E90929496989A9C9EA1
:101F5000A0A2A4A6A8AAACAEB0B2B4B6B8BABCBE91
:101F6000C0C2C4C6C8CACCCED0D2D4D6D8DADCDE81
:101F7000E0E2E4E6E8EAECEEF0F2F4F6F8FAFCFE71
:101F800001030507090B0D0F11131517191B1D1F51
:101F900021232527292B2D2F31333537393B3D3F41
:101FA00041434547494B4D4F51535557595B5D5F31
:101FB00061636567696B6D6F71737577797B7D7F21
:101FC00081838587898B8D8F91939597999B9D9F11
:101FD000A1A3A5A7A9ABADAFB1B3B5B7B9BBBDBF01
:101FE000C1C3C5C7C9CBCDCFD1D3D5D7D9DBDDDFF1
:101FF000E1E3E5E7E9EBEDEFF1F3F5F7F9FBFDFFE1
:102000000080018102820383048405850686078798
:10201000088809890A8A0B8B0C8C0D8D0E8E0F8F08
:102020001090119112921393149415951696179778
:10203000189819991A9A1B9B1C9C1D9D1E9E1F9FE8
:1020400020A021A122A223A324A425A526A627A758
:1020500028A829A92AAA2BAB2CAC2DAD2EAE2FAFC8
:1020600030B031B132B233B334B435B536B637B738
:1020700038B839B93ABA3BBB3CBC3DBD3EBE3FBFA8
:1020800040C041C142C243C344C445C546C647C718
:1020900048C849C94ACA4BCB4CCC4DCD4ECE4FCF88
:1020A00050D051D152D253D354D455D556D657D7F8
:1020B00058D859D95ADA5BDB5CDC5DDD5EDE5FDF68
:1020C00060E061E162E263E364E465E566E667E7D8
:1020D00068E869E96AEA6BEB6CEC6DED6EEE6FEF48
:1020E00070F071F172F273F374F475F576F677F7B8
:1020F00078F879F97AFA7BFB7CFC7DFD7EFE7FFF28
:102100001000F70D2451F70D3441F70DEEEE001FCE
:10211000FC00E401E4FDE403FEFFE6030100E80245
:102120000000EA02500000080800E4020010E60285
:102130000100E8020000EA025000000814C0E402B6
:102140000920E6020000E8024000EA025000000810
:1021500008000001000001011800000DFF0000044C
:10216000010101042E00220164012017580000081B
:102170001004010C0A002201640120179C000008D1
:102180002B0022016401201701000004FF0101045B
:102190000000020E010203117000000810DEE00CC6
:1021A0000CADE10C08C0E20C08DEE30D01E0001FFD
:1021B000FDFC100301000101C300020110FE031920
:1021C00002030311000303130323220364012017F6
:1021D00003232203F400201710FE031A1400030D3A
:1021E000011004070110100604111106BC000008BC
:1021F000646E651F6C41F70C0100230100E8250E99
:1022000000E9260E00EA270E00EB280E2322240FF9
:10221000E4E6291D1800240DE8292910E92A2A10CE
:10222000EA2B2B10EB2C2C10400100082529290F3C
:10223000262A2A0F272B2B0F282C2C0F40010008B1
:10224000E4E6291E400024010C00240DFF24240490
:10225000480100080C80230D002323130C01000803
:10226000202100090851F70D202100091F10230229
:10227000001025021810270280002D012723291D98
:102280002D29290FF800290D2523221A20210009C4
:10229000114ED60720A0DA042201120C1DC9072016
:1022A000D80C2E10C0072004101809E4072018E5E8
:1022B000072030105A02101A1C109A40101A2010D1
:1022C000413930311A14101A6020120113480C1AC7
:1022D000D21C1DE307208010111A0120190C1A09C5
:1022E000203AC02049101A08109A70101A24106A57
:1022F00090104ACE409AE0402970CBB0C820110A15
:1023000015C12059800A1D20200A1640201AD01815
:102310001AE2A0192069101A01106A80104AD5101B
:102320006A901059509AA05029206AB0204ACA10C9
:10233000DAC0405B20C2104AD410DAE020DAF06044
:1023400011193069601A02206A104019602910DAE8
:1023500060309A3030B9E0197029E09AD0E0291045
:102360006A605059F06A701059906A801059609AEA
:10237000906029206AA0204ACB10DAB040CB10C36D
:10238000F0DAD020DAE060DAF0F011694019602963
:1023900010DA50301A2020091AF06AC030DACC2046
:1023A00019F029206A6060191029906A701059A0EC
:1023B0006A801059709A907029206AA0204ACD1026
:1023C000DAB0408B10C4902910DAD020DAE0609A9D
:1023D000F06029F011694019602910DA50301A2094
:1023E000206930B9E0197029E05AC0301A141C294C
:1023F000245A80505A04406910290C1A25246A90E6
:102400001059209AB0601A0920DAF0209AD0201AC8
:1024100008206AA0204ACE209AE0201A24206AC010
:1024200020CAD0B0290C111EE4072040C5E89960ED
:102430001A7010A9801AB010A9809A902029806A79
:10244000602059809AA0202980DA80409AD0201AF2
:102450000A20CB10C620DAF080DAC060111930A94A
:1024600060DAE0609A80201BC1E040D9609AA02029
:102470001AC0206A70205960DAB060DA90409AE0A1
:10248000202AC2601904A92011CAC780DAD0609A34
:10249000102029606AF020311A20102EA0C80720D1
:1024A00004102CD40720101AB010A920E9103AD03B
:1024B00010BA2440120113480CDAD740DAD810CAF7
:1024C000D510290C410A13C010BA24101A0460391F
:1024D000104CE407201059305910794059105A0215
:1024E000B0015C00000000000000000000000000DF
:1024F00000000000000000000000000000000000DC
:1025000000000000000000000000000000000000CB
:1025100000000000000000000000000000000000BB
:1025200000000000000000000000000000000000AB
:10253000000000000000000000000000000000009B
:10254000000000000000000000000000000000008B
:10255000000000000000000000000000000000007B
:10256000000000000000000000000000000000006B
:10257000000000000000000000000000000000005B
:10258000000000000000000000000000000000004B
:04000005000000CD2A
:00000001FF
